{
  "_format": "hh3-artifact-1",
  "contractName": "PropertyDeed",
  "sourceName": "contracts/propertydeed.sol",
  "abi": [
    {
      "inputs": [],
      "stateMutability": "nonpayable",
      "type": "constructor"
    },
    {
      "inputs": [
        {
          "internalType": "address",
          "name": "sender",
          "type": "address"
        },
        {
          "internalType": "uint256",
          "name": "tokenId",
          "type": "uint256"
        },
        {
          "internalType": "address",
          "name": "owner",
          "type": "address"
        }
      ],
      "name": "ERC721IncorrectOwner",
      "type": "error"
    },
    {
      "inputs": [
        {
          "internalType": "address",
          "name": "operator",
          "type": "address"
        },
        {
          "internalType": "uint256",
          "name": "tokenId",
          "type": "uint256"
        }
      ],
      "name": "ERC721InsufficientApproval",
      "type": "error"
    },
    {
      "inputs": [
        {
          "internalType": "address",
          "name": "approver",
          "type": "address"
        }
      ],
      "name": "ERC721InvalidApprover",
      "type": "error"
    },
    {
      "inputs": [
        {
          "internalType": "address",
          "name": "operator",
          "type": "address"
        }
      ],
      "name": "ERC721InvalidOperator",
      "type": "error"
    },
    {
      "inputs": [
        {
          "internalType": "address",
          "name": "owner",
          "type": "address"
        }
      ],
      "name": "ERC721InvalidOwner",
      "type": "error"
    },
    {
      "inputs": [
        {
          "internalType": "address",
          "name": "receiver",
          "type": "address"
        }
      ],
      "name": "ERC721InvalidReceiver",
      "type": "error"
    },
    {
      "inputs": [
        {
          "internalType": "address",
          "name": "sender",
          "type": "address"
        }
      ],
      "name": "ERC721InvalidSender",
      "type": "error"
    },
    {
      "inputs": [
        {
          "internalType": "uint256",
          "name": "tokenId",
          "type": "uint256"
        }
      ],
      "name": "ERC721NonexistentToken",
      "type": "error"
    },
    {
      "inputs": [
        {
          "internalType": "address",
          "name": "owner",
          "type": "address"
        }
      ],
      "name": "OwnableInvalidOwner",
      "type": "error"
    },
    {
      "inputs": [
        {
          "internalType": "address",
          "name": "account",
          "type": "address"
        }
      ],
      "name": "OwnableUnauthorizedAccount",
      "type": "error"
    },
    {
      "anonymous": false,
      "inputs": [
        {
          "indexed": true,
          "internalType": "address",
          "name": "owner",
          "type": "address"
        },
        {
          "indexed": true,
          "internalType": "address",
          "name": "approved",
          "type": "address"
        },
        {
          "indexed": true,
          "internalType": "uint256",
          "name": "tokenId",
          "type": "uint256"
        }
      ],
      "name": "Approval",
      "type": "event"
    },
    {
      "anonymous": false,
      "inputs": [
        {
          "indexed": true,
          "internalType": "address",
          "name": "owner",
          "type": "address"
        },
        {
          "indexed": true,
          "internalType": "address",
          "name": "operator",
          "type": "address"
        },
        {
          "indexed": false,
          "internalType": "bool",
          "name": "approved",
          "type": "bool"
        }
      ],
      "name": "ApprovalForAll",
      "type": "event"
    },
    {
      "anonymous": false,
      "inputs": [
        {
          "indexed": false,
          "internalType": "uint256",
          "name": "_fromTokenId",
          "type": "uint256"
        },
        {
          "indexed": false,
          "internalType": "uint256",
          "name": "_toTokenId",
          "type": "uint256"
        }
      ],
      "name": "BatchMetadataUpdate",
      "type": "event"
    },
    {
      "anonymous": false,
      "inputs": [
        {
          "indexed": false,
          "internalType": "uint256",
          "name": "_tokenId",
          "type": "uint256"
        }
      ],
      "name": "MetadataUpdate",
      "type": "event"
    },
    {
      "anonymous": false,
      "inputs": [
        {
          "indexed": true,
          "internalType": "address",
          "name": "previousOwner",
          "type": "address"
        },
        {
          "indexed": true,
          "internalType": "address",
          "name": "newOwner",
          "type": "address"
        }
      ],
      "name": "OwnershipTransferred",
      "type": "event"
    },
    {
      "anonymous": false,
      "inputs": [
        {
          "indexed": true,
          "internalType": "address",
          "name": "from",
          "type": "address"
        },
        {
          "indexed": true,
          "internalType": "address",
          "name": "to",
          "type": "address"
        },
        {
          "indexed": true,
          "internalType": "uint256",
          "name": "tokenId",
          "type": "uint256"
        }
      ],
      "name": "Transfer",
      "type": "event"
    },
    {
      "inputs": [],
      "name": "_tokenIds",
      "outputs": [
        {
          "internalType": "uint256",
          "name": "",
          "type": "uint256"
        }
      ],
      "stateMutability": "view",
      "type": "function"
    },
    {
      "inputs": [
        {
          "internalType": "address",
          "name": "to",
          "type": "address"
        },
        {
          "internalType": "uint256",
          "name": "tokenId",
          "type": "uint256"
        }
      ],
      "name": "approve",
      "outputs": [],
      "stateMutability": "nonpayable",
      "type": "function"
    },
    {
      "inputs": [
        {
          "internalType": "address",
          "name": "owner",
          "type": "address"
        }
      ],
      "name": "balanceOf",
      "outputs": [
        {
          "internalType": "uint256",
          "name": "",
          "type": "uint256"
        }
      ],
      "stateMutability": "view",
      "type": "function"
    },
    {
      "inputs": [
        {
          "internalType": "uint256",
          "name": "tokenId",
          "type": "uint256"
        }
      ],
      "name": "getApproved",
      "outputs": [
        {
          "internalType": "address",
          "name": "",
          "type": "address"
        }
      ],
      "stateMutability": "view",
      "type": "function"
    },
    {
      "inputs": [],
      "name": "getCurrentTokenId",
      "outputs": [
        {
          "internalType": "uint256",
          "name": "",
          "type": "uint256"
        }
      ],
      "stateMutability": "view",
      "type": "function"
    },
    {
      "inputs": [
        {
          "internalType": "address",
          "name": "owner",
          "type": "address"
        },
        {
          "internalType": "address",
          "name": "operator",
          "type": "address"
        }
      ],
      "name": "isApprovedForAll",
      "outputs": [
        {
          "internalType": "bool",
          "name": "",
          "type": "bool"
        }
      ],
      "stateMutability": "view",
      "type": "function"
    },
    {
      "inputs": [
        {
          "internalType": "address",
          "name": "to",
          "type": "address"
        },
        {
          "internalType": "string",
          "name": "tokenURI",
          "type": "string"
        }
      ],
      "name": "mintDeed",
      "outputs": [
        {
          "internalType": "uint256",
          "name": "",
          "type": "uint256"
        }
      ],
      "stateMutability": "nonpayable",
      "type": "function"
    },
    {
      "inputs": [],
      "name": "name",
      "outputs": [
        {
          "internalType": "string",
          "name": "",
          "type": "string"
        }
      ],
      "stateMutability": "view",
      "type": "function"
    },
    {
      "inputs": [],
      "name": "owner",
      "outputs": [
        {
          "internalType": "address",
          "name": "",
          "type": "address"
        }
      ],
      "stateMutability": "view",
      "type": "function"
    },
    {
      "inputs": [
        {
          "internalType": "uint256",
          "name": "tokenId",
          "type": "uint256"
        }
      ],
      "name": "ownerOf",
      "outputs": [
        {
          "internalType": "address",
          "name": "",
          "type": "address"
        }
      ],
      "stateMutability": "view",
      "type": "function"
    },
    {
      "inputs": [],
      "name": "renounceOwnership",
      "outputs": [],
      "stateMutability": "nonpayable",
      "type": "function"
    },
    {
      "inputs": [
        {
          "internalType": "address",
          "name": "from",
          "type": "address"
        },
        {
          "internalType": "address",
          "name": "to",
          "type": "address"
        },
        {
          "internalType": "uint256",
          "name": "tokenId",
          "type": "uint256"
        }
      ],
      "name": "safeTransferFrom",
      "outputs": [],
      "stateMutability": "nonpayable",
      "type": "function"
    },
    {
      "inputs": [
        {
          "internalType": "address",
          "name": "from",
          "type": "address"
        },
        {
          "internalType": "address",
          "name": "to",
          "type": "address"
        },
        {
          "internalType": "uint256",
          "name": "tokenId",
          "type": "uint256"
        },
        {
          "internalType": "bytes",
          "name": "data",
          "type": "bytes"
        }
      ],
      "name": "safeTransferFrom",
      "outputs": [],
      "stateMutability": "nonpayable",
      "type": "function"
    },
    {
      "inputs": [
        {
          "internalType": "address",
          "name": "operator",
          "type": "address"
        },
        {
          "internalType": "bool",
          "name": "approved",
          "type": "bool"
        }
      ],
      "name": "setApprovalForAll",
      "outputs": [],
      "stateMutability": "nonpayable",
      "type": "function"
    },
    {
      "inputs": [
        {
          "internalType": "bytes4",
          "name": "interfaceId",
          "type": "bytes4"
        }
      ],
      "name": "supportsInterface",
      "outputs": [
        {
          "internalType": "bool",
          "name": "",
          "type": "bool"
        }
      ],
      "stateMutability": "view",
      "type": "function"
    },
    {
      "inputs": [],
      "name": "symbol",
      "outputs": [
        {
          "internalType": "string",
          "name": "",
          "type": "string"
        }
      ],
      "stateMutability": "view",
      "type": "function"
    },
    {
      "inputs": [
        {
          "internalType": "uint256",
          "name": "tokenId",
          "type": "uint256"
        }
      ],
      "name": "tokenURI",
      "outputs": [
        {
          "internalType": "string",
          "name": "",
          "type": "string"
        }
      ],
      "stateMutability": "view",
      "type": "function"
    },
    {
      "inputs": [
        {
          "internalType": "address",
          "name": "from",
          "type": "address"
        },
        {
          "internalType": "address",
          "name": "to",
          "type": "address"
        },
        {
          "internalType": "uint256",
          "name": "tokenId",
          "type": "uint256"
        }
      ],
      "name": "transferFrom",
      "outputs": [],
      "stateMutability": "nonpayable",
      "type": "function"
    },
    {
      "inputs": [
        {
          "internalType": "address",
          "name": "newOwner",
          "type": "address"
        }
      ],
      "name": "transferOwnership",
      "outputs": [],
      "stateMutability": "nonpayable",
      "type": "function"
    }
  ],
  "bytecode": "0x608060405234801561001057600080fd5b50336040518060400160405280600c81526020016b141c9bdc195c9d1e5119595960a21b81525060405180604001604052806005815260200164141111515160da1b815250816000908161006491906101a2565b50600161007182826101a2565b5050506001600160a01b0381166100a257604051631e4fbdf760e01b81526000600482015260240160405180910390fd5b6100ab816100b1565b50610260565b600780546001600160a01b038381166001600160a01b0319831681179093556040519116919082907f8be0079c531659141344cd1fd0a4f28419497f9722a3daafe3b4186f6b6457e090600090a35050565b634e487b7160e01b600052604160045260246000fd5b600181811c9082168061012d57607f821691505b60208210810361014d57634e487b7160e01b600052602260045260246000fd5b50919050565b601f82111561019d57806000526020600020601f840160051c8101602085101561017a5750805b601f840160051c820191505b8181101561019a5760008155600101610186565b50505b505050565b81516001600160401b038111156101bb576101bb610103565b6101cf816101c98454610119565b84610153565b6020601f82116001811461020357600083156101eb5750848201515b600019600385901b1c1916600184901b17845561019a565b600084815260208120601f198516915b828110156102335787850151825560209485019460019092019101610213565b50848210156102515786840151600019600387901b60f8161c191681555b50505050600190811b01905550565b6114508061026f6000396000f3fe608060405234801561001057600080fd5b50600436106101215760003560e01c806370a08231116100ad578063aa46a40011610071578063aa46a40014610248578063b88d4fde14610251578063c87b56dd14610264578063e985e9c514610277578063f2fde38b1461028a57600080fd5b806370a0823114610201578063715018a6146102145780638da5cb5b1461021c57806395d89b411461022d578063a22cb4651461023557600080fd5b806323b872dd116100f457806323b872dd146101a357806342842e0e146101b657806356189236146101c95780635e99e080146101db5780636352211e146101ee57600080fd5b806301ffc9a71461012657806306fdde031461014e578063081812fc14610163578063095ea7b31461018e575b600080fd5b610139610134366004610f16565b61029d565b60405190151581526020015b60405180910390f35b6101566102c8565b6040516101459190610f83565b610176610171366004610f96565b61035a565b6040516001600160a01b039091168152602001610145565b6101a161019c366004610fcb565b610383565b005b6101a16101b1366004610ff5565b610392565b6101a16101c4366004610ff5565b610422565b6008545b604051908152602001610145565b6101cd6101e93660046110c2565b610442565b6101766101fc366004610f96565b61047f565b6101cd61020f366004611124565b61048a565b6101a16104d2565b6007546001600160a01b0316610176565b6101566104e6565b6101a161024336600461113f565b6104f5565b6101cd60085481565b6101a161025f36600461117b565b610500565b610156610272366004610f96565b610518565b6101396102853660046111f7565b610629565b6101a1610298366004611124565b610657565b60006001600160e01b03198216632483248360e11b14806102c257506102c282610695565b92915050565b6060600080546102d79061122a565b80601f01602080910402602001604051908101604052809291908181526020018280546103039061122a565b80156103505780601f1061032557610100808354040283529160200191610350565b820191906000526020600020905b81548152906001019060200180831161033357829003601f168201915b5050505050905090565b6000610365826106e5565b506000828152600460205260409020546001600160a01b03166102c2565b61038e82823361071e565b5050565b6001600160a01b0382166103c157604051633250574960e11b8152600060048201526024015b60405180910390fd5b60006103ce83833361072b565b9050836001600160a01b0316816001600160a01b03161461041c576040516364283d7b60e01b81526001600160a01b03808616600483015260248201849052821660448201526064016103b8565b50505050565b61043d83838360405180602001604052806000815250610500565b505050565b600061044c610824565b6008805490600061045c83611264565b909155505060085461046e8482610851565b610478818461086b565b9392505050565b60006102c2826106e5565b60006001600160a01b0382166104b6576040516322718ad960e21b8152600060048201526024016103b8565b506001600160a01b031660009081526003602052604090205490565b6104da610824565b6104e460006108bb565b565b6060600180546102d79061122a565b61038e33838361090d565b61050b848484610392565b61041c33858585856109ac565b6060610523826106e5565b506000828152600660205260408120805461053d9061122a565b80601f01602080910402602001604051908101604052809291908181526020018280546105699061122a565b80156105b65780601f1061058b576101008083540402835291602001916105b6565b820191906000526020600020905b81548152906001019060200180831161059957829003601f168201915b5050505050905060006105d460408051602081019091526000815290565b905080516000036105e6575092915050565b81511561061857808260405160200161060092919061128b565b60405160208183030381529060405292505050919050565b61062184610ad7565b949350505050565b6001600160a01b03918216600090815260056020908152604080832093909416825291909152205460ff1690565b61065f610824565b6001600160a01b03811661068957604051631e4fbdf760e01b8152600060048201526024016103b8565b610692816108bb565b50565b60006001600160e01b031982166380ac58cd60e01b14806106c657506001600160e01b03198216635b5e139f60e01b145b806102c257506301ffc9a760e01b6001600160e01b03198316146102c2565b6000818152600260205260408120546001600160a01b0316806102c257604051637e27328960e01b8152600481018490526024016103b8565b61043d8383836001610b4b565b6000828152600260205260408120546001600160a01b039081169083161561075857610758818486610c51565b6001600160a01b0381161561079657610775600085600080610b4b565b6001600160a01b038116600090815260036020526040902080546000190190555b6001600160a01b038516156107c5576001600160a01b0385166000908152600360205260409020805460010190555b60008481526002602052604080822080546001600160a01b0319166001600160a01b0389811691821790925591518793918516917fddf252ad1be2c89b69c2b068fc378daa952ba7f163c4a11628f55a4df523b3ef91a4949350505050565b6007546001600160a01b031633146104e45760405163118cdaa760e01b81523360048201526024016103b8565b61038e828260405180602001604052806000815250610cb5565b60008281526006602052604090206108838282611301565b506040518281527ff8e1a15aba9398e019f0b49df1a4fde98ee17ae345cb5f6b5e2c27f5033e8ce79060200160405180910390a15050565b600780546001600160a01b038381166001600160a01b0319831681179093556040519116919082907f8be0079c531659141344cd1fd0a4f28419497f9722a3daafe3b4186f6b6457e090600090a35050565b6001600160a01b03821661093f57604051630b61174360e31b81526001600160a01b03831660048201526024016103b8565b6001600160a01b03838116600081815260056020908152604080832094871680845294825291829020805460ff191686151590811790915591519182527f17307eab39ab6107e8899845ad3d59bd9653f200f220920489ca2b5937696c31910160405180910390a3505050565b6001600160a01b0383163b15610ad057604051630a85bd0160e11b81526001600160a01b0384169063150b7a02906109ee9088908890879087906004016113c0565b6020604051808303816000875af1925050508015610a29575060408051601f3d908101601f19168201909252610a26918101906113fd565b60015b610a92573d808015610a57576040519150601f19603f3d011682016040523d82523d6000602084013e610a5c565b606091505b508051600003610a8a57604051633250574960e11b81526001600160a01b03851660048201526024016103b8565b805160208201fd5b6001600160e01b03198116630a85bd0160e11b14610ace57604051633250574960e11b81526001600160a01b03851660048201526024016103b8565b505b5050505050565b6060610ae2826106e5565b506000610afa60408051602081019091526000815290565b90506000815111610b1a5760405180602001604052806000815250610478565b80610b2484610ccd565b604051602001610b3592919061128b565b6040516020818303038152906040529392505050565b8080610b5f57506001600160a01b03821615155b15610c21576000610b6f846106e5565b90506001600160a01b03831615801590610b9b5750826001600160a01b0316816001600160a01b031614155b8015610bae5750610bac8184610629565b155b15610bd75760405163a9fbf51f60e01b81526001600160a01b03841660048201526024016103b8565b8115610c1f5783856001600160a01b0316826001600160a01b03167f8c5be1e5ebec7d5bd14f71427d1e84f3dd0314c0f7b2291e5b200ac8c7c3b92560405160405180910390a45b505b5050600090815260046020526040902080546001600160a01b0319166001600160a01b0392909216919091179055565b610c5c838383610d60565b61043d576001600160a01b038316610c8a57604051637e27328960e01b8152600481018290526024016103b8565b60405163177e802f60e01b81526001600160a01b0383166004820152602481018290526044016103b8565b610cbf8383610dc3565b61043d3360008585856109ac565b60606000610cda83610e28565b600101905060008167ffffffffffffffff811115610cfa57610cfa611032565b6040519080825280601f01601f191660200182016040528015610d24576020820181803683370190505b5090508181016020015b600019016f181899199a1a9b1b9c1cb0b131b232b360811b600a86061a8153600a8504945084610d2e57509392505050565b60006001600160a01b038316158015906106215750826001600160a01b0316846001600160a01b03161480610d9a5750610d9a8484610629565b806106215750506000908152600460205260409020546001600160a01b03908116911614919050565b6001600160a01b038216610ded57604051633250574960e11b8152600060048201526024016103b8565b6000610dfb8383600061072b565b90506001600160a01b0381161561043d576040516339e3563760e11b8152600060048201526024016103b8565b60008072184f03e93ff9f4daa797ed6e38ed64bf6a1f0160401b8310610e675772184f03e93ff9f4daa797ed6e38ed64bf6a1f0160401b830492506040015b6d04ee2d6d415b85acef81000000008310610e93576d04ee2d6d415b85acef8100000000830492506020015b662386f26fc100008310610eb157662386f26fc10000830492506010015b6305f5e1008310610ec9576305f5e100830492506008015b6127108310610edd57612710830492506004015b60648310610eef576064830492506002015b600a83106102c25760010192915050565b6001600160e01b03198116811461069257600080fd5b600060208284031215610f2857600080fd5b813561047881610f00565b60005b83811015610f4e578181015183820152602001610f36565b50506000910152565b60008151808452610f6f816020860160208601610f33565b601f01601f19169290920160200192915050565b6020815260006104786020830184610f57565b600060208284031215610fa857600080fd5b5035919050565b80356001600160a01b0381168114610fc657600080fd5b919050565b60008060408385031215610fde57600080fd5b610fe783610faf565b946020939093013593505050565b60008060006060848603121561100a57600080fd5b61101384610faf565b925061102160208501610faf565b929592945050506040919091013590565b634e487b7160e01b600052604160045260246000fd5b60008067ffffffffffffffff84111561106357611063611032565b50604051601f19601f85018116603f0116810181811067ffffffffffffffff8211171561109257611092611032565b6040528381529050808284018510156110aa57600080fd5b83836020830137600060208583010152509392505050565b600080604083850312156110d557600080fd5b6110de83610faf565b9150602083013567ffffffffffffffff8111156110fa57600080fd5b8301601f8101851361110b57600080fd5b61111a85823560208401611048565b9150509250929050565b60006020828403121561113657600080fd5b61047882610faf565b6000806040838503121561115257600080fd5b61115b83610faf565b91506020830135801515811461117057600080fd5b809150509250929050565b6000806000806080858703121561119157600080fd5b61119a85610faf565b93506111a860208601610faf565b925060408501359150606085013567ffffffffffffffff8111156111cb57600080fd5b8501601f810187136111dc57600080fd5b6111eb87823560208401611048565b91505092959194509250565b6000806040838503121561120a57600080fd5b61121383610faf565b915061122160208401610faf565b90509250929050565b600181811c9082168061123e57607f821691505b60208210810361125e57634e487b7160e01b600052602260045260246000fd5b50919050565b60006001820161128457634e487b7160e01b600052601160045260246000fd5b5060010190565b6000835161129d818460208801610f33565b8351908301906112b1818360208801610f33565b01949350505050565b601f82111561043d57806000526020600020601f840160051c810160208510156112e15750805b601f840160051c820191505b81811015610ad057600081556001016112ed565b815167ffffffffffffffff81111561131b5761131b611032565b61132f81611329845461122a565b846112ba565b6020601f821160018114611363576000831561134b5750848201515b600019600385901b1c1916600184901b178455610ad0565b600084815260208120601f198516915b828110156113935787850151825560209485019460019092019101611373565b50848210156113b15786840151600019600387901b60f8161c191681555b50505050600190811b01905550565b6001600160a01b03858116825284166020820152604081018390526080606082018190526000906113f390830184610f57565b9695505050505050565b60006020828403121561140f57600080fd5b815161047881610f0056fea2646970667358221220d6e2133a082d3694140cbe16addccad8e5424d1bf1329607dd69b63668383b5664736f6c634300081c0033",
  "linkReferences": {},
  "deployedLinkReferences": {},
  "immutableReferences": {},
  "inputSourceName": "project/contracts/propertydeed.sol",
  "buildInfoId": "solc-0_8_28-6b70da312f709ea4704d4aaaff233a21479d587f"
}